{
  "_format": "hh-sol-artifact-1",
  "contractName": "TokenizedBallot",
  "sourceName": "contracts/TokenizedBallot.sol",
  "abi": [
    {
      "inputs": [
        {
          "internalType": "bytes32[]",
          "name": "_proposalNames",
          "type": "bytes32[]"
        },
        {
          "internalType": "address",
          "name": "_tokenContract",
          "type": "address"
        },
        {
          "internalType": "uint256",
          "name": "_targetBlockNumber",
          "type": "uint256"
        }
      ],
      "stateMutability": "nonpayable",
      "type": "constructor"
    },
    {
      "inputs": [
        {
          "internalType": "uint256",
          "name": "",
          "type": "uint256"
        }
      ],
      "name": "proposals",
      "outputs": [
        {
          "internalType": "bytes32",
          "name": "name",
          "type": "bytes32"
        },
        {
          "internalType": "uint256",
          "name": "voteCount",
          "type": "uint256"
        }
      ],
      "stateMutability": "view",
      "type": "function"
    },
    {
      "inputs": [],
      "name": "targetBlockNumber",
      "outputs": [
        {
          "internalType": "uint256",
          "name": "",
          "type": "uint256"
        }
      ],
      "stateMutability": "view",
      "type": "function"
    },
    {
      "inputs": [],
      "name": "tokenContract",
      "outputs": [
        {
          "internalType": "contract IMyToken",
          "name": "",
          "type": "address"
        }
      ],
      "stateMutability": "view",
      "type": "function"
    },
    {
      "inputs": [
        {
          "internalType": "uint256",
          "name": "proposal",
          "type": "uint256"
        },
        {
          "internalType": "uint256",
          "name": "amount",
          "type": "uint256"
        }
      ],
      "name": "vote",
      "outputs": [],
      "stateMutability": "nonpayable",
      "type": "function"
    },
    {
      "inputs": [
        {
          "internalType": "address",
          "name": "",
          "type": "address"
        }
      ],
      "name": "votedAmount",
      "outputs": [
        {
          "internalType": "uint256",
          "name": "",
          "type": "uint256"
        }
      ],
      "stateMutability": "view",
      "type": "function"
    },
    {
      "inputs": [],
      "name": "winnerName",
      "outputs": [
        {
          "internalType": "bytes32",
          "name": "winnerName_",
          "type": "bytes32"
        }
      ],
      "stateMutability": "view",
      "type": "function"
    },
    {
      "inputs": [],
      "name": "winningProposal",
      "outputs": [
        {
          "internalType": "uint256",
          "name": "winningProposal_",
          "type": "uint256"
        }
      ],
      "stateMutability": "view",
      "type": "function"
    }
  ],
  "bytecode": "0x60806040523480156200001157600080fd5b5060405162000e5438038062000e548339818101604052810190620000379190620003ca565b816000806101000a81548173ffffffffffffffffffffffffffffffffffffffff021916908373ffffffffffffffffffffffffffffffffffffffff160217905550806002819055506002544311620000c5576040517f08c379a0000000000000000000000000000000000000000000000000000000008152600401620000bc90620004a6565b60405180910390fd5b60005b83518110156200015c5760016040518060400160405280868481518110620000f557620000f4620004c8565b5b6020026020010151815260200160008152509080600181540180825580915050600190039060005260206000209060020201600090919091909150600082015181600001556020820151816001015550508080620001539062000526565b915050620000c8565b5050505062000573565b6000604051905090565b600080fd5b600080fd5b600080fd5b6000601f19601f8301169050919050565b7f4e487b7100000000000000000000000000000000000000000000000000000000600052604160045260246000fd5b620001ca826200017f565b810181811067ffffffffffffffff82111715620001ec57620001eb62000190565b5b80604052505050565b60006200020162000166565b90506200020f8282620001bf565b919050565b600067ffffffffffffffff82111562000232576200023162000190565b5b602082029050602081019050919050565b600080fd5b6000819050919050565b6200025d8162000248565b81146200026957600080fd5b50565b6000815190506200027d8162000252565b92915050565b60006200029a620002948462000214565b620001f5565b90508083825260208201905060208402830185811115620002c057620002bf62000243565b5b835b81811015620002ed5780620002d888826200026c565b845260208401935050602081019050620002c2565b5050509392505050565b600082601f8301126200030f576200030e6200017a565b5b81516200032184826020860162000283565b91505092915050565b600073ffffffffffffffffffffffffffffffffffffffff82169050919050565b600062000357826200032a565b9050919050565b62000369816200034a565b81146200037557600080fd5b50565b60008151905062000389816200035e565b92915050565b6000819050919050565b620003a4816200038f565b8114620003b057600080fd5b50565b600081519050620003c48162000399565b92915050565b600080600060608486031215620003e657620003e562000170565b5b600084015167ffffffffffffffff81111562000407576200040662000175565b5b6200041586828701620002f7565b9350506020620004288682870162000378565b92505060406200043b86828701620003b3565b9150509250925092565b600082825260208201905092915050565b7f54617267657420626c6f636b206d75737420626520696e207468652070617374600082015250565b60006200048e60208362000445565b91506200049b8262000456565b602082019050919050565b60006020820190508181036000830152620004c1816200047f565b9050919050565b7f4e487b7100000000000000000000000000000000000000000000000000000000600052603260045260246000fd5b7f4e487b7100000000000000000000000000000000000000000000000000000000600052601160045260246000fd5b600062000533826200038f565b91507fffffffffffffffffffffffffffffffffffffffffffffffffffffffffffffffff8203620005685762000567620004f7565b5b600182019050919050565b6108d180620005836000396000f3fe608060405234801561001057600080fd5b506004361061007d5760003560e01c8063609ff1bd1161005b578063609ff1bd146100ef578063b384abef1461010d578063db069ba514610129578063e2ba53f0146101595761007d565b8063013cf08b146100825780632a8cd29e146100b357806355a373d6146100d1575b600080fd5b61009c600480360381019061009791906104ab565b610177565b6040516100aa929190610500565b60405180910390f35b6100bb6101ab565b6040516100c89190610529565b60405180910390f35b6100d96101b1565b6040516100e691906105c3565b60405180910390f35b6100f76101d5565b6040516101049190610529565b60405180910390f35b610127600480360381019061012291906105de565b61025d565b005b610143600480360381019061013e919061065c565b610424565b6040516101509190610529565b60405180910390f35b61016161043c565b60405161016e9190610689565b60405180910390f35b6001818154811061018757600080fd5b90600052602060002090600202016000915090508060000154908060010154905082565b60025481565b60008054906101000a900473ffffffffffffffffffffffffffffffffffffffff1681565b6000806000905060005b600180549050811015610258578160018281548110610201576102006106a4565b5b9060005260206000209060020201600101541115610245576001818154811061022d5761022c6106a4565b5b90600052602060002090600202016001015491508092505b808061025090610702565b9150506101df565b505090565b60008060009054906101000a900473ffffffffffffffffffffffffffffffffffffffff1673ffffffffffffffffffffffffffffffffffffffff16633a46b1a8336002546040518363ffffffff1660e01b81526004016102bd929190610759565b602060405180830381865afa1580156102da573d6000803e3d6000fd5b505050506040513d601f19601f820116820180604052508101906102fe9190610797565b90508082600360003373ffffffffffffffffffffffffffffffffffffffff1673ffffffffffffffffffffffffffffffffffffffff1681526020019081526020016000205461034c91906107c4565b111561038d576040517f08c379a00000000000000000000000000000000000000000000000000000000081526004016103849061087b565b60405180910390fd5b81600360003373ffffffffffffffffffffffffffffffffffffffff1673ffffffffffffffffffffffffffffffffffffffff16815260200190815260200160002060008282546103dc91906107c4565b9250508190555081600184815481106103f8576103f76106a4565b5b9060005260206000209060020201600101600082825461041891906107c4565b92505081905550505050565b60036020528060005260406000206000915090505481565b600060016104486101d5565b81548110610459576104586106a4565b5b906000526020600020906002020160000154905090565b600080fd5b6000819050919050565b61048881610475565b811461049357600080fd5b50565b6000813590506104a58161047f565b92915050565b6000602082840312156104c1576104c0610470565b5b60006104cf84828501610496565b91505092915050565b6000819050919050565b6104eb816104d8565b82525050565b6104fa81610475565b82525050565b600060408201905061051560008301856104e2565b61052260208301846104f1565b9392505050565b600060208201905061053e60008301846104f1565b92915050565b600073ffffffffffffffffffffffffffffffffffffffff82169050919050565b6000819050919050565b600061058961058461057f84610544565b610564565b610544565b9050919050565b600061059b8261056e565b9050919050565b60006105ad82610590565b9050919050565b6105bd816105a2565b82525050565b60006020820190506105d860008301846105b4565b92915050565b600080604083850312156105f5576105f4610470565b5b600061060385828601610496565b925050602061061485828601610496565b9150509250929050565b600061062982610544565b9050919050565b6106398161061e565b811461064457600080fd5b50565b60008135905061065681610630565b92915050565b60006020828403121561067257610671610470565b5b600061068084828501610647565b91505092915050565b600060208201905061069e60008301846104e2565b92915050565b7f4e487b7100000000000000000000000000000000000000000000000000000000600052603260045260246000fd5b7f4e487b7100000000000000000000000000000000000000000000000000000000600052601160045260246000fd5b600061070d82610475565b91507fffffffffffffffffffffffffffffffffffffffffffffffffffffffffffffffff820361073f5761073e6106d3565b5b600182019050919050565b6107538161061e565b82525050565b600060408201905061076e600083018561074a565b61077b60208301846104f1565b9392505050565b6000815190506107918161047f565b92915050565b6000602082840312156107ad576107ac610470565b5b60006107bb84828501610782565b91505092915050565b60006107cf82610475565b91506107da83610475565b92508282019050808211156107f2576107f16106d3565b5b92915050565b600082825260208201905092915050565b7f566f74657220646f6573206e6f74206861766520656e6f75676820766f74696e60008201527f6720706f77657200000000000000000000000000000000000000000000000000602082015250565b60006108656027836107f8565b915061087082610809565b604082019050919050565b6000602082019050818103600083015261089481610858565b905091905056fea2646970667358221220094658fb285fa72ee08898bd36f8a05cf30137ca9e944a73a739fb612387978864736f6c63430008130033",
  "linkReferences": {},
  "deployedLinkReferences": {}
}